:020000040800F2
:100000001809002005010008751A00085718000893
:10001000711A0008130200084921000800000000BE
:10002000000000000000000000000000A51A000809
:100030001702000800000000791A0008DD1A000805
:100040001F0100081F0100081F0100081F01000810
:100050001F0100081F0100081F0100081F01000800
:100060001F0100081F0100081F0100081F010008F0
:100070001F0100081F0100081F0100081F010008E0
:100080001F0100081F0100081F0100081F010008D0
:100090001F0100081F0100081F0100081F010008C0
:1000A0001F0100081F0100081F0100081F010008B0
:1000B0001F0100081F0100081F0100081F010008A0
:1000C0001F0100081F0100081F0100081F01000890
:1000D0001F01000829210008392100081F0100081C
:1000E0001F0100081F0100081F010008DFF810D0E1
:1000F00000F06EF800480047F1240008AFF30080DC
:10010000180900200648804706480047FEE7FEE73A
:10011000FEE7FEE7FEE7FEE7FEE7FEE7FEE7FEE7B7
:100120004B1B0008ED000008202A04DB203A21FACE
:1001300002F00021704721FA02F3D040C2F1200200
:100140009140084319467047D2B201E000F8012BF4
:10015000491EFBD270470022F6E710B513460A4647
:1001600004461946FFF7F0FF204610BD2DE9F05F69
:100170000546002092469B46884606468146402416
:100180001BE02846414647462246FFF7CDFF53462F
:100190005A46C01A914110D311461846224600F023
:1001A00029F82D1A67EB01084F462246012000214D
:1001B00000F020F817EB00094E41201EA4F10104C5
:1001C000DFDC484631462A464346BDE8F09F000042
:1001D000064C074D06E0E06840F0010394E8070094
:1001E00098471034AC42F6D3FFF784FF98260008F6
:1001F000B8260008202A04DB203A00FA02F1002089
:1002000070479140C2F1200320FA03F31943904054
:10021000704700BFFEE7704772B600BFFEE70146B9
:10022000002291F82100022808D00420886300BF32
:10023000002081F8200000BF012070470868006896
:1002400020F00E000B6818600868006820F00100BC
:100250000B68186091F8403001209840CB6B5860D3
:10026000012081F8210000BF002081F8200000BF9C
:100270001046E2E770B50446002594F821000228F4
:1002800003D00420A063012548E02068006820F026
:100290000E00216808602068006820F001002168D5
:1002A00008601F492068884201D1012026E01C49CE
:1002B00014312068884201D110201FE018492831EC
:1002C0002068884201D1801518E015493C3120682A
:1002D000884201D1801411E01149503120688842D0
:1002E00002D14FF4803009E00D4964312068884222
:1002F00002D14FF4801001E04FF0807008490839B6
:100300004860012084F8210000BF002084F820000C
:1003100000BF606B10B12046616B8847284670BDF6
:10032000080002402DE9F8470346002294466EE19A
:100330004FF0010808FA02F4D1F8008008EA04003E
:10034000A0427DD1DFF8DCA2D1F80480A8EB0A0935
:10035000D0453AD014DCB8F1030F50D009DCB8F125
:10036000000F31D0B8F1010F1CD0B8F1020F49D104
:1003700020E0B8F1110F18D0B8F1120F42D11EE0F1
:10038000B9F5881F25D006DCB9F5803F20D0B9F536
:10039000801F37D11AE0B9F5001F18D0B9F5041F36
:1003A00030D117E0D1F80CC02DE0D1F80C8008F165
:1003B000040C28E0D1F80C8008F1080C23E0D1F8F7
:1003C0000C8008F10C0C1EE000BF00BF00BF00BF96
:1003D00000BF00BFD1F80880B8F1000F02D14FF084
:1003E000040C0BE0D1F80880B8F1010F03D14FF0F5
:1003F000080C1C6102E04FF0080C5C6103E04FF058
:10040000000C00E000BF00BFFF2801D8984601E0C3
:1004100003F104084646FF2802D84FEA820803E0A9
:10042000A2F108084FEA88084746D6F800804FF046
:100430000F0909FA07F928EA09080CFA07F900E098
:1004400088E048EA0908C6F80080D1F8048008F07E
:100450008058B8F1805F7DD100BFDFF8CC81D8F83B
:10046000188048F00108DFF8C091C9F81880C84624
:10047000D8F8188008F00108CDF8008000BF00BF50
:100480004FEAB9384FEA920958F829504FEA827872
:100490004FEA18794FF00F0808FA09F825EA08051D
:1004A000DFF88881434502D14FF0000816E0DFF8FD
:1004B0008081434502D14FF001080FE0DFF87481DD
:1004C000434502D14FF0020808E0DFF86C81434554
:1004D00002D14FF0030801E04FF004084FEA82799F
:1004E0004FEA197908FA09F848EA0505DFF84C815E
:1004F0004FEA920948F82950D1F8048008F480188E
:10050000B8F5801F0AD1DFF83881D8F8008048EAB2
:100510000008DFF82C91C9F8008009E0DFF820819D
:10052000D8F8008028EA0008DFF81491C9F80080A4
:10053000D1F8048008F40018B8F5001F10D1DFF8D6
:10054000008108F10408D8F8008048EA0008DFF8C4
:10055000F09000E05AE009F10409C9F800800DE0CC
:10056000DFF8DC8008F10408D8F8008028EA0008E9
:10057000DFF8CC9009F10409C9F80080D1F80480B3
:1005800008F40038B8F5003F0ED1DFF8B480A8F1C8
:100590000408D8F8008048EA0008DFF8A490A9F120
:1005A0000409C9F800800DE0DFF89480A8F1040880
:1005B000D8F8008028EA0008DFF88490A9F104093F
:1005C000C9F80080D1F8048008F48038B8F5803F7D
:1005D0000ED1DFF86C80A8F10808D8F8008048EA4E
:1005E0000008DFF85C90A9F10809C9F800800DE067
:1005F000DFF84C80A8F10808D8F8008028EA000845
:10060000DFF83C90A9F10809C9F80080521CD1F824
:10061000008028FA02F8B8F1000F7FF489AEBDE837
:10062000F88700000000111000100240000801408F
:10063000000C01400010014000140140080001407E
:1006400008040140014800687047000024000020B1
:100650000348006803490978084401490860704765
:10066000240000202C00002010B50848006840F04D
:10067000100006490860032000F0A8F80F2000F0E1
:1006800007F800F02BF8002010BD00000020024009
:1006900070B504460E4800784FF47A71B1FBF0F063
:1006A0000C490968B1FBF0F5284600F0F9FB08B1E8
:1006B000012070BD102C07D200222146501E00F0F0
:1006C00047F80548046001E00120F2E70020F0E768
:1006D0002C000020300000202800002008B500BFBA
:1006E0001148806940F001000F498861084680691F
:1006F00000F00100009000BF00BF00BF0846C069C5
:1007000040F08050C8610846C06900F080500090F9
:1007100000BF00BF00BF0549486820F0E06040F01E
:100720000070486000BF08BD00100240000001409A
:1007300001460846002809DB00F01F0301229A4009
:1007400043099B0003F1E023C3F8002100BF704779
:100750002DE9F05F80460D461646002701F006FDA4
:10076000074639462A46334601F00700C0F1070A1A
:10077000BAF1040F02D94FF0040A01E0C0F1070AF0
:10078000D14600F1040ABAF1070F02D24FF0000A75
:1007900001E0A0F1030AD4464FF0010A0AFA09FA6F
:1007A000AAF1010A0AEA020A0AFA0CFA4FF0010B4E
:1007B0000BFA0CFBABF1010B0BEA030B4AEA0B043F
:1007C0002146404601F0DAFCBDE8F09F00BF00F092
:1007D0000702064B19684FF6FF031940044B0B4301
:1007E00043EA0221014B196000BF70470CED00E0A5
:1007F0000000FA0570B504460D460CB9012070BD25
:100800005A48006800F00700A8420ED25748006816
:1008100020F007002843554908600846006800F0AA
:100820000700A84201D00120E9E7207800F002008B
:1008300002281DD1207800F00400042805D14C487E
:10084000406840F4E0604A494860207800F00800C1
:10085000082805D14648406840F460504449486043
:100860004348406820F0F000A168084340494860D0
:10087000207800F0010078B36068012806D13C4878
:10088000006800F4003090B90120B8E760680228E1
:1008900006D13748006800F0007040B90120AEE78B
:1008A0003348006800F0020008B90120A7E730488B
:1008B000406820F00300616808432D494860FFF755
:1008C000C1FE064609E0FFF7BDFE801B41F28831FC
:1008D000884202D9032092E707E02548406800F0EB
:1008E0000C006168B0EB810FEDD12048006800F08A
:1008F0000700A8420ED91D48006820F007002843D1
:100900001A4908600846006800F00700A84201D0B4
:10091000012074E7207800F00400042807D114486F
:10092000406820F4E060E16808431149486020789D
:1009300000F00800082808D10D48406820F46050F5
:10094000216940EAC1000A49486000F03FF80849BF
:100950004968C1F30311074A515CC8400649086061
:1009600006480068FFF794FE002048E70020024098
:10097000001002407E2600083000002028000020E1
:1009800001480068704700003000002000B5FFF704
:10099000F7FF04494968C1F30221034A515CC8408A
:1009A00000BD0000001002408E26000800B5FFF7D1
:1009B000E7FF04494968C1F3C221034A515CC840BA
:1009C00000BD0000001002408E26000870B5002116
:1009D0000022002400230020134D696801F00C055B
:1009E000F5B1042D02D0082D19D101E00F4819E00E
:1009F0000F4DC1F38346AB5D01F4803555B10A4D0F
:100A00006D68C5F340450B4E725D084D5D43B5FB07
:100A1000F2F402E0084D03FB05F4204602E000BFBB
:100A2000024800BF00BF70BD0010024000127A00F3
:100A30006C2600087C26000800093D00F8B5044635
:100A40000CB90120F8BD207800F00100002878D012
:100A5000F848406800F00C0004280CD0F5484068C5
:100A600000F00C00082811D1F248406800F48030F2
:100A7000B0F5803F0AD1EF48006800F4003000284C
:100A80005FD0606800285CD10120DBE700BF6068B0
:100A9000B0F5803F06D1E748006840F48030E54972
:100AA000086028E0606858B9E248006820F48030A7
:100AB000E04908600846006820F4802008601AE0D9
:100AC0006068B0F5A02F0BD1DA48006840F48020B0
:100AD000D84908600846006840F4803008600AE0A1
:100AE000D448006820F48030D24908600846006885
:100AF00020F48020086000BF606888B1FFF7A2FD85
:100B0000054606E0FFF79EFD401B642801D903203F
:100B100098E7C848006800F400300028F2D010E0E0
:100B2000FFF790FD054606E0FFF78CFD401B6428AB
:100B300001D9032086E7BF48006800F40030002890
:100B4000F2D1207800F00200022857D1B94840685D
:100B500000F00C0050B1B748406800F00C000828C5
:100B600018D1B448406800F4803098B9B1480068A2
:100B700000F0020020B12069012801D0012061E7C6
:100B8000AC48006820F0F800616940EAC100A9495A
:100B9000086033E02069E8B10120A7490860FFF749
:100BA00051FD054606E0FFF74DFD401B022801D927
:100BB000032047E79F48006800F002000028F2D0B9
:100BC0009C48006820F0F800616940EAC10099493A
:100BD000086013E0002098490860FFF733FD0546E0
:100BE00006E0FFF72FFD401B022801D9032029E76B
:100BF0009048006800F002000028F2D1207800F050
:100C0000080008282DD1A069B8B101208B490860DF
:100C1000FFF718FD054606E0FFF714FD401B02280C
:100C200001D903200EE78348406A00F00200002843
:100C3000F2D0012000F022FF13E000207F4908607D
:100C4000FFF700FD054606E0FFF7FCFC401B02280D
:100C500001D90320F6E67748406A00F00200002838
:100C6000F2D1207800F00400042873D100277148E5
:100C7000C06900F0805070B900BF6E48C06940F094
:100C800080506C49C8610846C06900F080500090EF
:100C900000BF00BF01276A48006800F48070B0B947
:100CA0006748006840F4807065490860FFF7CAFC37
:100CB000054606E0FFF7C6FC401B642801D9032067
:100CC000C0E65F48006800F480700028F2D000BFE2
:100CD000E068012806D15748006A40F001005549F4
:100CE000086227E0E06858B95248006A20F0010025
:100CF000504908620846006A20F00400086219E0C2
:100D0000E06805280BD14B48006A40F004004949CF
:100D100008620846006A40F0010008620AE045489F
:100D2000006A20F00100434908620846006A20F08A
:100D30000400086200BFE068A0B1FFF783FC05462D
:100D400009E0FFF77FFC401B41F28831884202D95D
:100D5000032077E622E03748006A00F0020000280E
:100D6000EFD012E0FFF76EFC054608E0FFF76AFCE3
:100D7000401B41F28831884201D9032062E62D48A8
:100D8000006A00F002000028F0D1012F05D12948A7
:100D9000C06920F080502749C86100BFE069C8B32E
:100DA0002448406800F00C00082860D0E069022860
:100DB00048D1002020490866FFF744FC054606E0BC
:100DC000FFF740FC401B022801D903203AE61948EE
:100DD000006800F000700028F2D1206AB0F5803F72
:100DE00007D11448406820F40030A1680843114935
:100DF0004860D4E9080108430E49496821F4741198
:100E000008430C49486001200B490866FFF71AFCAB
:100E1000054607E03DE0FFF715FC401B022801D91D
:100E200003200FE60348006800F000700028F2D0AD
:100E30002FE00000001002400000424280044242C5
:100E400000700040002014490866FFF7FBFB0546D0
:100E500006E0FFF7F7FB401B022801D90320F1E56C
:100E60000E48006800F000700028F2D111E0E0693F
:100E7000012800D1E6E50948466806F48031206A79
:100E8000814204D106F47011606A814201D00120D0
:100E9000D8E50020D6E500000000424200100240E4
:100EA00070B504462546681EB0F1807F01D301204D
:100EB0000FE0681E4FF0E02148610F214FF0FF3036
:100EC00001F05CF900204FF0E02188610720086103
:100ED000002070BD30B502460B4600BF92F83C00C2
:100EE000012801D1022030BD012082F83C0000BF62
:100EF000022082F83D00106844681068816824F080
:100F000070041868044310684460104D1068A842CB
:100F10000BD01068B0F1804F07D00D4D1068A8427B
:100F200003D00C4D1068A84205D121F0800158680B
:100F3000014310688160012082F83D0000BF00205D
:100F400082F83C0000BF00BFCDE70000002C01404C
:100F5000000400400008004010B586B004460020A0
:100F600002900390049005902068B0F1804F16D154
:100F700000BF0C48806940F004000A4988610846B7
:100F8000806900F00400019000BF00BF01200290C2
:100F900002200390059002A90348FFF7C3F906B0A9
:100FA00010BD000000100240000801402DE9F04192
:100FB00004460D461646002700BF94F83C00012861
:100FC00002D10220BDE8F081012084F83C0000BF7E
:100FD00036B1042E1BD0082E31D00C2E5ED145E048
:100FE0002946206800F0FEFD2068806940F0080076
:100FF000216888612068806920F004002168886188
:1010000020688069296908432168886148E0294689
:10101000206800F017FE2068806940F400602168B5
:1010200088612068806920F4806021688861206878
:101030008069296940EA01202168886130E02946F9
:10104000206800F033FE2068C06940F00800216885
:10105000C8612068C06920F004002168C861206868
:10106000C069296908432168C86119E029462068D8
:1010700000F050FE2068C06940F400602168C8613B
:101080002068C06920F480602168C8612068C06958
:10109000296940EA01202168C86101E0012700BFF9
:1010A00000BF00BF002084F83C0000BF384689E73D
:1010B00010B504460CB9012010BD94F83D0028B9C4
:1010C000002084F83C00204600F026F8022084F836
:1010D0003D00211D206800F039FD012084F8460004
:1010E00000BF84F83E0001213F20015540200155FA
:1010F0004120015500BF00BF012084F84200432079
:101100000155442001554520015500BF012084F8B8
:101110003D000020D0E7000008B50168B1F1804F24
:101120000DD100BF0649C96941F00101044AD161EE
:101130001146C96901F00101009100BF00BF08BD5F
:101140000010024070B504460D4615B994F83E00F3
:101150000BE0042D02D13F20005D06E0082D02D1F6
:101160004020005D01E04120005D012801D0012008
:1011700070BD1DB9022084F83E000EE0042D03D19D
:1011800002213F20015508E0082D03D10221402013
:10119000015502E002214120015501222946206823
:1011A00000F00EFD19492068884201D1012000E0BD
:1011B000002028B12068406C40F400402168486459
:1011C0001249206888420BD02068B0F1804F07D0C8
:1011D0000F492068884203D00E49206888420CD10C
:1011E0002068806800F00706062E0CD02068006892
:1011F00040F001002168086005E02068006840F0C8
:101200000100216808600020B2E70000002C0140C6
:101210000004004000080040F8B504460E4617469A
:1012200094F8420020282ED106B10FB90120F8BD54
:1012300001202063002060633A463146204600F0DA
:10124000D9FE0546EDB9206B012819D100BF002059
:10125000009020680068009020684068009000BFFF
:1012600000BF00BF00BF21680C3151E8001F41F0F2
:10127000100021680C3141E80002002AF3D100E09F
:1012800001252846D3E70220D1E700003EB50446F9
:101290000D4600BF002084F8400000BF164884427D
:1012A0000AD1164916A000F051FF40F2FF1213496F
:1012B0001148FFF7B1FF1DE0124884421AD112A075
:1012C00000F044FF1348407912490979114AD27855
:1012D000CDE9002102900F488378427801780EA072
:1012E00000F034FF01201149086007220949054830
:1012F000FFF792FF3EBD000088000020180100208B
:1013000025730000D00000204C5359545F44617491
:10131000613A00000000002025582025582025585B
:101320002025582025582025580D0A0008000020A7
:10133000704700002DE9F84F0446206805682068D2
:10134000C668206847694FF00009CA4605F00F09D2
:10135000B9F1000F0AD105F0200038B106F02000E5
:1013600020B1204600F04AFDBDE8F88FB9F1000F2A
:101370007BD007F0010018B906F49070002874D0F3
:1013800005F0010030B106F4807018B1606C40F0D7
:101390000100606405F0040030B107F0010018B1ED
:1013A000606C40F00200606405F0020030B107F0AC
:1013B000010018B1606C40F00400606405F00800A2
:1013C00048B106F0200010B907F0010018B1606CB8
:1013D00040F008006064606C002845D005F02000F3
:1013E00028B106F0200010B1204600F007FD20686B
:1013F0004069C0F3801A606C00F0080010B9BAF1BF
:10140000000F2CD0204600F0B3FC2068406900F0AB
:10141000400000B300BF00BF2168143151E8001F35
:1014200021F040002168143141E80002002AF3D184
:1014300000BFE06B50B17748E16B4863E06BFEF7AB
:1014400019FF88B1E06B416B88470DE02046FFF73C
:101450006FFF09E009E02046FFF76AFF04E020463D
:10146000FFF766FF002060647EE7206B012877D1DC
:1014700005F01000002873D006F010000028FAD004
:1014800000BF00200090206800680090206840683D
:10149000009000BF00BF2068406900F040000028B5
:1014A0005FD0E06B006840681FFA80F8B8F1000F69
:1014B00055D0A08D404552DDA4F82E80E06B8069A8
:1014C000202843D000BF00BF21680C3151E8001F25
:1014D00021F4807021680C3141E80002002AF3D128
:1014E00000BF00BF00BF2168143151E8001F21F088
:1014F00001002168143141E80002002AF3D100BF45
:1015000000BF00BF2168143151E8001F21F04000E6
:101510002168143141E80002002AF3D100BF2020E5
:1015200084F842000020206300BF00BF21680C3116
:1015300051E8001F21F0100021680C3141E8000241
:10154000002AF3D100BFE06BFEF769FE0220606362
:10155000A08DE28D801A81B22046FFF797FE03E747
:1015600042E0A08DE18D401A1FFA80F8E08DD0B3E3
:10157000B8F1000F37D000BF00BF21680C3151E82F
:10158000001F21F4907021680C3141E80002002A0C
:10159000F3D100BF00BF00BF2168143151E8001F24
:1015A00021F001002168143141E80002002AF3D142
:1015B00000BF202084F842000020206300BF00BF4D
:1015C00021680C3151E8001F21F0100021680C3116
:1015D00041E80002002AF3D100BF022060634146C7
:1015E0002046FFF753FEBFE605F0800030B106F05D
:1015F000800018B1204600F01DFDB5E605F0400062
:1016000030B106F0400018B1204600F0E7FBABE631
:1016100000BFA9E65D1D000810B504460CB9012005
:1016200010BDA06900B100E000BF94F8410028B9E6
:10163000002084F84000204600F02AF8242084F896
:1016400041002068C06820F400502168C86020462E
:1016500000F052FC2068006920F490402168086185
:101660002068406920F02A00216848612068C0682D
:1016700040F400502168C86000206064202084F895
:10168000410084F842000020606300BFC8E700000A
:1016900010B586B004460020029003900490059097
:1016A0003B492068884237D100BF3A48806940F4FE
:1016B0008040384988610846806900F48040019084
:1016C00000BF00BF00BF0846806940F00400886189
:1016D0000846806900F00400019000BF00BF481573
:1016E0000290022003900320059002A92A48FEF7E9
:1016F00019FE4FF48060029000200390049002A92C
:101700002548FEF70FFE002201212520FFF720F8D3
:101710002520FFF70DF839E020492068884235D1AF
:1017200000BF1C48C06940F400301A49C86108462F
:10173000C06900F40030019000BF00BF00BF084640
:10174000806940F0040088610846806900F0040068
:10175000019000BF00BF04200290022003900320EC
:10176000059002A90C48FEF7DDFD0820029000203C
:101770000390049002A90848FEF7D4FD0022114608
:101780002620FEF7E5FF2620FEF7D2FF06B010BDAB
:1017900000380140001002400008014000440040B1
:1017A00070472DE9F84F04460E46174699464FF00C
:1017B000000A94F8410020284AD106B117B9012047
:1017C000BDE8F88F00206064212084F84100FEF716
:1017D00039FF8246A784E784A068B0F5805F04D112
:1017E000206910B90025B04602E035464FF00008E8
:1017F0001BE05346002280212046CDF8009000F0E7
:1018000049FC08B10320DBE745B9B8F80000C0F394
:1018100008002168486008F1020803E02878216880
:1018200048606D1CE08C401EE084E08C0028E0D114
:101830005346002240212046CDF8009000F02AFCBB
:1018400008B10320BCE7202084F841000020B7E75E
:101850000220B5E7704700BFFEE7000001461948C7
:10186000006808B9012070470020164A1060164829
:1018700000780A2801D00120F5E7134840780428B1
:101880000AD00B2813D00F280BD0432815D10020E5
:101890000870F020487012E0002008700F20487097
:1018A0000DE00120087008480079487007E0022028
:1018B000087005480079487001E00120D3E700BFB7
:1018C0000020D0E7080000200000002070B5054689
:1018D000182000F095FE0446A02D04D0A12D08D0BC
:1018E000A22D13D10CE01148016821608088A080EE
:1018F0000EE00E48D0F8061021604089A08007E075
:101900000A48C1682160008AA08001E0012070BD02
:1019100000BF0A23062221460548FFF742FF06467C
:10192000204600F0BDFD3046F1E700001000002029
:10193000D000002070B50446049DE81A6043561A92
:1019400090FBF6F0184470BD08B500BF0D488069E3
:1019500040F020000B4988610846806900F02000B3
:10196000009000BF00BF00BF0846806940F004003F
:1019700088610846806900F00400009000BF00BF45
:1019800008BD00000010024000B589B0002007909B
:1019900008901C216846FEF7DEFB4FF08040174997
:1019A00008602320486000211448816049F63F41C7
:1019B000C160002101618161FFF77AFB08B1FEF788
:1019C0002BFC00200790089007A90C48FFF782FA2B
:1019D00008B1FEF721FC60200090002001900290E9
:1019E0000490002269460548FFF7E0FA08B1FEF7C7
:1019F00013FC0248FFF7B0FA09B000BD4000002018
:101A000010B50B480B4908604FF4E13048600021E5
:101A100008488160C16001610C2141610021816140
:101A2000C161FFF7F9FD08B1FEF7F6FB10BD00003C
:101A3000003801408800002010B50B480B490860B1
:101A40004FF416504860002108488160C160016170
:101A50000C21416100218161C161FFF7DDFD08B109
:101A6000FEF7DAFB10BD000000440040D00000206B
:101A700000BFFEE700BFFEE77047000008B5084959
:101A80000968C9084FF47A72B1FBF2F14143009141
:101A900000BF00BF00994A1E00920029F9D108BD7D
:101AA000300000207047000018B50446B42C01DD5A
:101AB000B42402E0002C00DA002441F288304FF414
:101AC0007A73B422002100902046FFF733FF0249C9
:101AD0000968486318BD00004000002010B5FEF7FB
:101AE000B7FD10BD00B58FB0282105A8FEF733FB68
:101AF00014216846FEF72FFB012005900004069094
:101B0000002007900120099002200C90C1030D9144
:101B10004FF4E0110E9105A8FEF790FF08B1FEF713
:101B20007BFB0F20009002200190002002904FF4D8
:101B3000806003900020049002216846FEF75AFE60
:101B400008B1FEF769FB0FB000BD704710B5026821
:101B5000184B984208D0B0F1804F05D0164B9842F0
:101B600002D0164B984203D122F070024B681A4300
:101B7000104B984208D0B0F1804F05D00E4B9842E0
:101B800002D00E4B984203D122F44072CB681A4324
:101B900022F080034C6943EA040202608B68C3624E
:101BA0000B688362034B984201D10B6903630123E5
:101BB000436110BD002C01400004004000080040BB
:101BC00030B501F01F05012404FA05F3046A9C43B3
:101BD0000462046A01F01F0502FA05F52C43046251
:101BE00030BD000030B5026A056A25F001050562C6
:101BF0004368846924F0700424F003040D682C43C6
:101C000022F002028D682A430D4DA84206D100BF82
:101C100022F00802CD682A4322F00402084DA842AF
:101C200007D123F4807323F400734D692B438D692E
:101C30002B43436084614D684563026230BD000000
:101C4000002C014030B5026A056A25F010050562D6
:101C50004368846924F4E04424F440740D6844EA41
:101C6000052422F020028D6842EA05120E4DA8429A
:101C700007D100BF22F08002CD6842EA051222F0AF
:101C80004002094DA84209D123F4806323F4006384
:101C90004D6943EA85038D6943EA850343608461A6
:101CA0004D688563026230BD002C014030B5026A88
:101CB000056A25F4807505624368C46924F07004E0
:101CC00024F003040D682C4322F400728D6842EA6C
:101CD00005220F4DA84207D100BF22F40062CD6853
:101CE00042EA052222F48062094DA84209D123F478
:101CF000805323F400534D6943EA05138D6943EA89
:101D000005134360C4614D68C563026230BD0000C5
:101D1000002C014030B5036A056A25F48055056240
:101D20004468C26922F4E04222F440720D6842EA3B
:101D3000052223F400538D6843EA0533064DA8427B
:101D400004D124F480444D6944EA85144460C2619E
:101D50004D680564036230BD002C014070B5054636
:101D60006C6A0020E085E0842046FFF7E1FA70BD50
:101D700000BF00BF02680C3252E8002F22F49071BD
:101D800002680C3242E80013002BF3D100BF00BF01
:101D900000BF0268143252E8002F22F001010268ED
:101DA000143242E80013002BF3D100BF016B01296C
:101DB0000ED100BF00BF02680C3252E8002F22F0A3
:101DC000100102680C3242E80013002BF3D100BF6F
:101DD000202180F8421000210163704710B50446AD
:101DE0002068C06820F040002168C860202084F886
:101DF00041002046FFF72EFD002010BDF8B5044637
:101E000094F84200222875D1A068B0F5805F0CD10B
:101E1000206950B90025A66A20684068C0F3080010
:101E20003080A06A801CA06215E0A56A0026A06828
:101E3000B0F5805F03D0A06828B9206918B9206880
:101E40004068287004E02068406800F07F00287037
:101E5000A06A401CA062E08D401E80B2E085002890
:101E600046D12068C06820F020002168C860206842
:101E7000C06820F480702168C8602068406920F044
:101E8000010021684861202084F84200002060633E
:101E9000206B012826D10020206300BF00BF2168ED
:101EA0000C3151E8001F21F0100021680C3141E88D
:101EB0000002002AF3D100BF2068006800F0100083
:101EC00010280AD100BF0020009020680068009010
:101ED00020684068009000BF00BFA18D2046FFF73A
:101EE000D5F902E02046FFF75BFC0020F8BD01E0D9
:101EF0000020FBE70220F9E770B504462168096974
:101F000021F44051E2681143226811612269A168FD
:101F10001143626941EA02052168C96841F20C6215
:101F2000914329432268D1602168496921F44071B5
:101F3000A2691143226851612D4A2168914202D160
:101F4000FEF734FD01E0FEF721FD00EBC00101EBDF
:101F5000001162689200B1FBF2F100EBC00202EBEB
:101F6000001263689B00B2FBF3F26423B2FBF3F24E
:101F700002EBC20303EB0212A1EB8201322202EB5D
:101F800001116422B1FBF2F101F0F00100EBC0029B
:101F900002EB001263689B00B2FBF3F26423B2FB16
:101FA000F3F201EB021200EBC00101EB00116368D8
:101FB0009B00B1FBF3F100EBC00303EB0013666879
:101FC000B600B3FBF6F36426B3FBF6F303EBC306EC
:101FD00006EB0313A1EB8301322303EB011164230E
:101FE000B1FBF3F101F00F0111442268916070BD63
:101FF0000038014010B5034699629A85DA850020C1
:102000005864222083F84200186928B11868C06813
:1020100040F480701C68E0601868406940F001007E
:102020001C6860611868C06840F020001C68E060AF
:10203000002010BD014691F84100212828D1886870
:10204000B0F5805F0BD1086948B90A6A1088C0F3FF
:1020500008000B685860086A801C086205E00B6A7B
:10206000581C086218780B685860C88C401E80B2F3
:10207000C88458B90868C06820F080000B68D86030
:102080000868C06840F040000B68D86000207047C6
:102090000220FCE72DE9F04104460D46174698461C
:1020A000069E34E0701C88B32EB1FEF7CBFAA0EB8D
:1020B0000800B0422BD900BF00BF21680C3151E8A5
:1020C000001F21F4D07021680C3141E80002002A81
:1020D000F3D100BF00BF00BF2168143151E8001FD9
:1020E00021F001002168143141E80002002AF3D1F7
:1020F00000BF202084F8410084F8420000BF002087
:1021000084F8400000BF0320BDE8F081FFE72068AD
:1021100000682840A84201D1012000E00020B84218
:10212000C0D00020F0E7000010B50248FFF702F928
:1021300010BD00008800002010B50248FFF7FAF833
:1021400010BD0000D000002000BFFEE70FB4054B1B
:1021500010B503A9044A029800F034F810BC5DF8E9
:1021600014FB0000852400083400002002480068A9
:10217000C0F30220704700000CED00E010B500280D
:1021800004DB0A07130E054A135406E00A07140E6F
:10219000034A00F00F031B1FD45410BD00E400E0FD
:1021A00018ED00E002E008C8121F08C1002AFAD1A9
:1021B00070477047002001E001C1121F002AFBD1C7
:1021C000704700002DE9FF4F8DB09B460F46044637
:1021D000002606E025280BD05A460F999047641C2C
:1021E000761C20780028F5D111B03046BDE8F08F7C
:1021F0000025A8460122984900E0054314F8013F54
:10220000203B02FA03F00842F7D120782E2817D19C
:1022100014F8010F45F004052A280ED06FF02F02A4
:102220002078A0F1300109290AD808EB880102EBD7
:10223000410100EB0108641CF2E757F8048B641CB1
:1022400020786C280DD004DC4C2812D06A2811D1DB
:1022500004E074280DD07A280CD10AE045F400156A
:1022600007E0617845F48015814202D1641C05F5D0
:102270008015641C2078692844D008DC0028B3D07D
:10228000582867D063280FD0642808D13AE0702816
:1022900065D0732812D075285AD078285AD05A465B
:1022A0000F999047761CD5E017F8040B8DF80000C5
:1022B00000208DF80100E946012003E057F8049B57
:1022C0004FF0FF3069074FF0000501D40AE06D1CA4
:1022D00045450DDA8542FADB19F805100029F6D1DB
:1022E00006E06D1C8542FCDB19F805100029F8D1C9
:1022F0002E4404E019F8010B5A460F9990476D1EC1
:10230000F8D2A7E00A200021CDE90801C5F3025068
:1023100002280CD001CFC117021E71F100020CDAA5
:102320000023D0EB030063EB01012D2208E0FF1D29
:1023300027F00707F7E80201EEE72A0504D52B226C
:102340008DF8282001223CE0EA073AD02022F7E766
:102350000A2000E010200021CDE9080107E010204C
:10236000002145F00405CDE908014FF00808C5F348
:102370000250022810D001CF00214FF0000A2A0796
:1023800020D52278702A0DD0DDE908C38CF0100C1E
:102390005CEA030C0CD015E0FF1D27F00707F7E8F7
:1023A0000201EAE740228DF828204FF0010A0CE0F4
:1023B00050EA010306D030238DF828308DF829200B
:1023C000022292462278582A04D024A20DF1200934
:1023D0000B9209E026A2F9E7DDE90823FDF7C6FE26
:1023E0000B9B9B5C09F8013D50EA0102F4D1ADEB77
:1023F000090020300890680701D44FF001080899BF
:10240000884503DD0898A8EB000000E00020804626
:10241000002506E00AA85A46405D0F9990476D1CBA
:10242000761C5545F6DB04E030205A460F9990475C
:10243000761CB8F10001A8F10108F5DC05E019F8F7
:10244000010B5A460F999047761C0899481E089030
:102450000029F4DC641CC4E6092801003031323361
:1024600034353637383961626364656600000000D0
:1024700030313233343536373839414243444546BA
:102480000000000013B50C464FF6FF7301226946A9
:102490000248FFF786F900981CBD00008800002064
:1024A00010B5002821D0114B0022001F196803E04D
:1024B000814203D80A4649680029F9D152B113680C
:1024C000841A9C4204D1006818441060104602E04F
:1024D000506000E0186039B102680B1A934203D1D2
:1024E0000B681A4402604968416010BD3800002042
:1024F00008B5FEF7B9F8FFF7F5FAFFF725FAFFF789
:1025000043FAFFF77DFAFFF797FA00213248FEF70A
:1025100019FE0020FFF7C8FA30A0FFF717FE40F2BF
:10252000FF1231493148FEF777FE07223049314822
:10253000FEF772FE0A255A240026002000904AE089
:102540006846FFF78BF9002842D19DF8000020B1C2
:10255000012803D002282FD125E02DE09DF80100AD
:10256000092819D005DC70B101280ED0082818D12F
:102570000DE0102802D0112813D102E026465A247B
:102580000FE034460DE0641B0BE02C4409E00A35F3
:10259000A220FFF79BF904E00A3DA220FFF796F97D
:1025A00000BF00BF08E09DF8010018B9A220FFF7A6
:1025B0008DF900BF00BF00BF00BFB42C01DDB42403
:1025C00002E0002C00DA002421460BA0FFF7BEFD3C
:1025D0002046FFF769FAB3E74000002048656C6CBD
:1025E0006F2050430D0A00001801002088000020D1
:1025F00000000020D000002025640D0A000000002B
:10260000F0B50B30154D20F007010024144A0FE0FF
:1026100003688B420BD38B4205D95E1A4318476877
:10262000C3E9006700E04368136002C004E0021DD4
:1026300010680028ECD12046002802D1286808B193
:102640000020F0BD064A07481060074A121A22F01F
:102650000702C0E9002401202860D7E73C000020E1
:10266000380000201C030020180500200203040588
:10267000060708090A0B0C0D0E0F101001020000CE
:102680000000000000000102030406070809000022
:102690000000010203040000B8260008000000202A
:1026A00040000000A4210008F82600084000002097
:1026B000D8080000B421000800000000000000005D
:1026C00000000000080000000A02000000ED0A02FD
:1026D000000001ED0A02000002ED00000000000011
:1026E00010000000010000000024F40000000000C1
:0826F0000000000000000000E2
:04000005080000ED02
:00000001FF
